{
    "_format": "hh-sol-artifact-1",
    "contractName": "Transactions",
    "sourceName": "contracts/Transaction.sol",
    "abi": [
        {
            "anonymous": false,
            "inputs": [
                {
                    "indexed": false,
                    "internalType": "address",
                    "name": "from",
                    "type": "address"
                },
                {
                    "indexed": false,
                    "internalType": "address",
                    "name": "receiver",
                    "type": "address"
                },
                {
                    "indexed": false,
                    "internalType": "uint256",
                    "name": "amount",
                    "type": "uint256"
                },
                {
                    "indexed": false,
                    "internalType": "string",
                    "name": "message",
                    "type": "string"
                },
                {
                    "indexed": false,
                    "internalType": "uint256",
                    "name": "timestamp",
                    "type": "uint256"
                },
                {
                    "indexed": false,
                    "internalType": "string",
                    "name": "keyword",
                    "type": "string"
                }
            ],
            "name": "Transfer",
            "type": "event"
        },
        {
            "inputs": [
                {
                    "internalType": "address payable",
                    "name": "receiver",
                    "type": "address"
                },
                {
                    "internalType": "uint256",
                    "name": "amount",
                    "type": "uint256"
                },
                {
                    "internalType": "string",
                    "name": "message",
                    "type": "string"
                },
                {
                    "internalType": "string",
                    "name": "keyword",
                    "type": "string"
                }
            ],
            "name": "addToBlockchain",
            "outputs": [],
            "stateMutability": "nonpayable",
            "type": "function"
        },
        {
            "inputs": [],
            "name": "getAllTransactions",
            "outputs": [
                {
                    "components": [
                        {
                            "internalType": "address",
                            "name": "sender",
                            "type": "address"
                        },
                        {
                            "internalType": "address",
                            "name": "receiver",
                            "type": "address"
                        },
                        {
                            "internalType": "uint256",
                            "name": "amount",
                            "type": "uint256"
                        },
                        {
                            "internalType": "string",
                            "name": "message",
                            "type": "string"
                        },
                        {
                            "internalType": "uint256",
                            "name": "timestamp",
                            "type": "uint256"
                        },
                        {
                            "internalType": "string",
                            "name": "keyword",
                            "type": "string"
                        }
                    ],
                    "internalType": "struct Transactions.TransferStruct[]",
                    "name": "",
                    "type": "tuple[]"
                }
            ],
            "stateMutability": "view",
            "type": "function"
        },
        {
            "inputs": [],
            "name": "getTransactionCount",
            "outputs": [
                {
                    "internalType": "uint256",
                    "name": "",
                    "type": "uint256"
                }
            ],
            "stateMutability": "view",
            "type": "function"
        }
    ],
    "bytecode": "0x608060405234801561000f575f80fd5b50610dac8061001d5f395ff3fe608060405234801561000f575f80fd5b506004361061003f575f3560e01c806327506f53146100435780632e7700f014610061578063cc2d7ead1461007f575b5f80fd5b61004b61009b565b60405161005891906106b1565b60405180910390f35b6100696102d4565b60405161007691906106e0565b60405180910390f35b6100996004803603810190610094919061089b565b6102dc565b005b60606001805480602002602001604051908101604052809291908181526020015f905b828210156102cb578382905f5260205f2090600602016040518060c00160405290815f82015f9054906101000a900473ffffffffffffffffffffffffffffffffffffffff1673ffffffffffffffffffffffffffffffffffffffff1673ffffffffffffffffffffffffffffffffffffffff168152602001600182015f9054906101000a900473ffffffffffffffffffffffffffffffffffffffff1673ffffffffffffffffffffffffffffffffffffffff1673ffffffffffffffffffffffffffffffffffffffff168152602001600282015481526020016003820180546101a290610964565b80601f01602080910402602001604051908101604052809291908181526020018280546101ce90610964565b80156102195780601f106101f057610100808354040283529160200191610219565b820191905f5260205f20905b8154815290600101906020018083116101fc57829003601f168201915b505050505081526020016004820154815260200160058201805461023c90610964565b80601f016020809104026020016040519081016040528092919081815260200182805461026890610964565b80156102b35780601f1061028a576101008083540402835291602001916102b3565b820191905f5260205f20905b81548152906001019060200180831161029657829003601f168201915b505050505081525050815260200190600101906100be565b50505050905090565b5f8054905090565b60015f808282546102ed91906109c1565b9250508190555060016040518060c001604052803373ffffffffffffffffffffffffffffffffffffffff1681526020018673ffffffffffffffffffffffffffffffffffffffff16815260200185815260200184815260200142815260200183815250908060018154018082558091505060019003905f5260205f2090600602015f909190919091505f820151815f015f6101000a81548173ffffffffffffffffffffffffffffffffffffffff021916908373ffffffffffffffffffffffffffffffffffffffff1602179055506020820151816001015f6101000a81548173ffffffffffffffffffffffffffffffffffffffff021916908373ffffffffffffffffffffffffffffffffffffffff16021790555060408201518160020155606082015181600301908161041e9190610b91565b506080820151816004015560a082015181600501908161043e9190610b91565b5050507f416cfa4330a4565f45c2fd2dd4826a83a37443aba2ce6f79477c7355afac35fa33858585428660405161047a96959493929190610d09565b60405180910390a150505050565b5f81519050919050565b5f82825260208201905092915050565b5f819050602082019050919050565b5f73ffffffffffffffffffffffffffffffffffffffff82169050919050565b5f6104da826104b1565b9050919050565b6104ea816104d0565b82525050565b5f819050919050565b610502816104f0565b82525050565b5f81519050919050565b5f82825260208201905092915050565b5f5b8381101561053f578082015181840152602081019050610524565b5f8484015250505050565b5f601f19601f8301169050919050565b5f61056482610508565b61056e8185610512565b935061057e818560208601610522565b6105878161054a565b840191505092915050565b5f60c083015f8301516105a75f8601826104e1565b5060208301516105ba60208601826104e1565b5060408301516105cd60408601826104f9565b50606083015184820360608601526105e5828261055a565b91505060808301516105fa60808601826104f9565b5060a083015184820360a0860152610612828261055a565b9150508091505092915050565b5f61062a8383610592565b905092915050565b5f602082019050919050565b5f61064882610488565b6106528185610492565b935083602082028501610664856104a2565b805f5b8581101561069f5784840389528151610680858261061f565b945061068b83610632565b925060208a01995050600181019050610667565b50829750879550505050505092915050565b5f6020820190508181035f8301526106c9818461063e565b905092915050565b6106da816104f0565b82525050565b5f6020820190506106f35f8301846106d1565b92915050565b5f604051905090565b5f80fd5b5f80fd5b5f610714826104b1565b9050919050565b6107248161070a565b811461072e575f80fd5b50565b5f8135905061073f8161071b565b92915050565b61074e816104f0565b8114610758575f80fd5b50565b5f8135905061076981610745565b92915050565b5f80fd5b5f80fd5b7f4e487b71000000000000000000000000000000000000000000000000000000005f52604160045260245ffd5b6107ad8261054a565b810181811067ffffffffffffffff821117156107cc576107cb610777565b5b80604052505050565b5f6107de6106f9565b90506107ea82826107a4565b919050565b5f67ffffffffffffffff82111561080957610808610777565b5b6108128261054a565b9050602081019050919050565b828183375f83830152505050565b5f61083f61083a846107ef565b6107d5565b90508281526020810184848401111561085b5761085a610773565b5b61086684828561081f565b509392505050565b5f82601f8301126108825761088161076f565b5b813561089284826020860161082d565b91505092915050565b5f805f80608085870312156108b3576108b2610702565b5b5f6108c087828801610731565b94505060206108d18782880161075b565b935050604085013567ffffffffffffffff8111156108f2576108f1610706565b5b6108fe8782880161086e565b925050606085013567ffffffffffffffff81111561091f5761091e610706565b5b61092b8782880161086e565b91505092959194509250565b7f4e487b71000000000000000000000000000000000000000000000000000000005f52602260045260245ffd5b5f600282049050600182168061097b57607f821691505b60208210810361098e5761098d610937565b5b50919050565b7f4e487b71000000000000000000000000000000000000000000000000000000005f52601160045260245ffd5b5f6109cb826104f0565b91506109d6836104f0565b92508282019050808211156109ee576109ed610994565b5b92915050565b5f819050815f5260205f209050919050565b5f6020601f8301049050919050565b5f82821b905092915050565b5f60088302610a507fffffffffffffffffffffffffffffffffffffffffffffffffffffffffffffffff82610a15565b610a5a8683610a15565b95508019841693508086168417925050509392505050565b5f819050919050565b5f610a95610a90610a8b846104f0565b610a72565b6104f0565b9050919050565b5f819050919050565b610aae83610a7b565b610ac2610aba82610a9c565b848454610a21565b825550505050565b5f90565b610ad6610aca565b610ae1818484610aa5565b505050565b5b81811015610b0457610af95f82610ace565b600181019050610ae7565b5050565b601f821115610b4957610b1a816109f4565b610b2384610a06565b81016020851015610b32578190505b610b46610b3e85610a06565b830182610ae6565b50505b505050565b5f82821c905092915050565b5f610b695f1984600802610b4e565b1980831691505092915050565b5f610b818383610b5a565b9150826002028217905092915050565b610b9a82610508565b67ffffffffffffffff811115610bb357610bb2610777565b5b610bbd8254610964565b610bc8828285610b08565b5f60209050601f831160018114610bf9575f8415610be7578287015190505b610bf18582610b76565b865550610c58565b601f198416610c07866109f4565b5f5b82811015610c2e57848901518255600182019150602085019450602081019050610c09565b86831015610c4b5784890151610c47601f891682610b5a565b8355505b6001600288020188555050505b505050505050565b610c69816104d0565b82525050565b5f610c89610c84610c7f846104b1565b610a72565b6104b1565b9050919050565b5f610c9a82610c6f565b9050919050565b5f610cab82610c90565b9050919050565b610cbb81610ca1565b82525050565b5f82825260208201905092915050565b5f610cdb82610508565b610ce58185610cc1565b9350610cf5818560208601610522565b610cfe8161054a565b840191505092915050565b5f60c082019050610d1c5f830189610c60565b610d296020830188610cb2565b610d3660408301876106d1565b8181036060830152610d488186610cd1565b9050610d5760808301856106d1565b81810360a0830152610d698184610cd1565b905097965050505050505056fea264697066735822122037c7e05d2bbfa5befd8272a83402c4c3b6241c75081e80c62249380c3a3d3adf64736f6c63430008180033",
    "linkReferences": {},
    "deployedLinkReferences": {}
}